:100000000C945C000C9479000C9479000C947900A9
:100010000C9479000C9479000C9479000C9479007C
:100020000C9479000C9479000C9479000C9479006C
:100030000C9479000C9417010C9479000C947900BD
:100040000C94CD000C9479000C9479000C947900F8
:100050000C9479000C9479000C9479000C9479003C
:100060000C9479000C947900000000002500280011
:100070002B000000000023002600290004040404D3
:100080000404040402020202020203030303030342
:10009000010204081020408001020408102001021F
:1000A00004081020000000080002010000030407FB
:1000B000000000000000000011241FBECFEFD8E0B8
:1000C000DEBFCDBF11E0A0E0B1E0ECE5F6E002C09C
:1000D00005900D92A430B107D9F721E0A4E0B1E07A
:1000E00001C01D92A531B207E1F70E9472010C9484
:1000F0002C030C940000833081F028F4813099F0B7
:100100008230A9F008958730A9F08830C9F0843092
:10011000B1F4809180008F7D03C0809180008F7743
:1001200080938000089584B58F7784BD089584B549
:100130008F7DFBCF8091B0008F778093B0000895C2
:100140008091B0008F7DF9CFCF93DF93282F30E0DF
:10015000F901EC55FF4F8491F901E057FF4FD4911D
:10016000F901E458FF4FC491CC23A1F081110E9402
:100170007B00EC2FF0E0EE0FFF1FEE58FF4FA59134
:10018000B491EC91ED2381E090E009F480E0DF91FF
:10019000CF91089580E090E0FACF1F920F920FB6B2
:1001A0000F9211242F933F938F939F93AF93BF93FD
:1001B0008091110190911201A0911301B09114014D
:1001C0003091100123E0230F2D3758F50196A11D22
:1001D000B11D209310018093110190931201A093FF
:1001E0001301B093140180910C0190910D01A09125
:1001F0000E01B0910F010196A11DB11D80930C015C
:1002000090930D01A0930E01B0930F01BF91AF9198
:100210009F918F913F912F910F900FBE0F901F9044
:10022000189526E8230F0296A11DB11DD2CF1F926B
:100230000F920FB60F9211241F932F933F934F935A
:100240005F936F937F938F939F93AF93BF93CF935E
:10025000DF93EF93FF936091000170910101809112
:100260000201909103010E94AC027093850060939B
:10027000840088E00E94A400182FECEAF0E084914A
:10028000E8E9F0E0D491E4E8F0E0C491CC23A1F0F7
:1002900081110E947B00EC2FF0E0EE0FFF1FE85968
:1002A000FF4FA591B4918FB7F894EC911130C1F440
:1002B000D095DE23DC938FBFFF91EF91DF91CF913B
:1002C000BF91AF919F918F917F916F915F914F916E
:1002D0003F912F911F910F900FBE0F901F90189577
:1002E000DE2BE8CF789484B5826084BD84B58160CC
:1002F00084BD85B5826085BD85B5816085BD8091F1
:100300006E00816080936E00109281008091810068
:100310008260809381008091810081608093810060
:10032000809180008160809380008091B100846022
:100330008093B1008091B00081608093B000809183
:100340007A00846080937A0080917A008260809342
:100350007A0080917A00816080937A0080917A009F
:10036000806880937A001092C10081E084B9F8948B
:100370001092800010928100609100017091010143
:1003800080910201909103010E94AC02709385005C
:1003900060938400809181008560809381008091CA
:1003A0006F00816080936F00789400E010E089E036
:1003B0000E94A400EC0180910A0190910B01C817E2
:1003C000D90799F02FB7F8948091110190911201FB
:1003D000A0911301B09114012FBF80930601909357
:1003E0000701A0930801B09309012FB7F8948091F9
:1003F000110190911201A0911301B09114012FBF2E
:100400004091060150910701609108017091090126
:10041000841B950BA60BB70BC397A105B10520F163
:100420008091040190910501C817D907E9F0D09394
:100430000501C0930401C130D105B1F420E030E0E2
:100440004AEF54E460910001709101018091020132
:10045000909103010E94400260930001709301019A
:100460008093020190930301D0930B01C0930A0182
:100470000115110509F49BCF0E94000098CF505838
:10048000BB27AA270E9457020C94F2020E94E402A2
:1004900038F00E94EB0220F039F49F3F19F426F463
:1004A0000C94E1020EF4E095E7FB0C94DB02E92FDB
:1004B0000E94030358F3BA1762077307840795076E
:1004C00020F079F4A6F50C9425030EF4E0950B2E9C
:1004D000BA2FA02D0B01B90190010C01CA01A00196
:1004E0001124FF27591B99F0593F50F4503E68F1F1
:1004F0001A16F040A22F232F342F4427585FF3CF32
:10050000469537952795A795F0405395C9F77EF402
:100510001F16BA0B620B730B840BBAF09150A1F04B
:10052000FF0FBB1F661F771F881FC2F70EC0BA0FD1
:10053000621F731F841F48F4879577956795B79559
:10054000F7959E3F08F0B0CF9395880F08F0992754
:10055000EE0F9795879508950E940B0388F09F579B
:1005600098F0B92F9927B751B0F0E1F0660F771FD7
:10057000881F991F1AF0BA95C9F714C0B13091F0CD
:100580000E942503B1E008950C942503672F782F6E
:100590008827B85F39F0B93FCCF386957795679592
:1005A000B395D9F73EF490958095709561957F4FFE
:1005B0008F4F9F4F089597F99F6780E870E060E044
:1005C00008959FEF80EC089500240A9416161706EC
:1005D00018060906089500240A9412161306140634
:1005E00005060895092E0394000C11F4882352F097
:1005F000BB0F40F4BF2B11F460FF04C06F5F7F4F4F
:100600008F4F9F4F089557FD9058440F551F59F035
:100610005F3F71F04795880F97FB991F61F09F3FEF
:1006200079F087950895121613061406551FF2CF18
:100630004695F1DF08C0161617061806991FF1CF68
:1006400086957105610508940895E894BB2766278F
:0C0650007727CB0197F90895F894FFCFAD
:04065C000000803FDB
:00000001FF
