:020000040000FA
:100000000C945D000C947A000C947A000C947A00A5
:100010000C947A000C947A000C947A000C947A0078
:100020000C947A000C947A000C947A000C947A0068
:100030000C947A000C9418010C947A000C947A00B9
:100040000C94CE000C947A000C947A000C947A00F4
:100050000C947A000C947A000C947A000C947A0038
:100060000C947A000C947A0000000000250028000F
:100070002B000000000023002600290004040404D3
:100080000404040402020202020203030303030342
:10009000010204081020408001020408102001021F
:1000A00004081020000000080002010000030407FB
:1000B0000000000000000000460211241FBECFEF28
:1000C000D8E0DEBFCDBF21E0A0E0B1E001C01D92CD
:1000D000AE30B207E1F710E0CDE5D0E004C02197E3
:1000E000FE010E946E03CC35D107C9F70E9473014F
:1000F0000C9474030C940000833081F028F4813058
:1001000099F08230A9F008958730A9F08830C9F0BD
:100110008430B1F4809180008F7D03C08091800095
:100120008F7780938000089584B58F7784BD08957C
:1001300084B58F7DFBCF8091B0008F778093B00026
:1001400008958091B0008F7DF9CFCF93DF93282F52
:1001500030E0F901EC55FF4F8491F901E057FF4F72
:10016000D491F901E458FF4FC491CC23A1F081113F
:100170000E947C00EC2FF0E0EE0FFF1FEE58FF4FC7
:10018000A591B491EC91ED2381E090E009F480E039
:10019000DF91CF91089580E090E0FACF1F920F9207
:1001A0000FB60F9211242F933F938F939F93AF938A
:1001B000BF9380910A0190910B01A0910C01B09125
:1001C0000D013091090123E0230F2D3758F50196D9
:1001D000A11DB11D2093090180930A0190930B0189
:1001E000A0930C01B0930D0180910501909106013F
:1001F000A0910701B09108010196A11DB11D809346
:10020000050190930601A0930701B0930801BF91E7
:10021000AF919F918F913F912F910F900FBE0F90B3
:100220001F90189526E8230F0296A11DB11DD2CF6D
:100230001F920F920FB60F9211241F932F933F938B
:100240004F935F936F937F938F939F93AF93BF93DE
:10025000CF93DF93EF93FF936091000170910101C1
:1002600080910201909103010E94C5027093850064
:100270006093840088E00E94A500182FECEAF0E06B
:100280008491E8E9F0E0D491E4E8F0E0C491CC2373
:10029000A1F081110E947C00EC2FF0E0EE0FFF1F17
:1002A000E859FF4FA591B4918FB7F894EC911130B4
:1002B000C1F4D095DE23DC938FBFFF91EF91DF91E6
:1002C000CF91BF91AF919F918F917F916F915F91EE
:1002D0004F913F912F911F910F900FBE0F901F9044
:1002E0001895DE2BE8CF789484B5826084BD84B500
:1002F000816084BD85B5826085BD85B5816085BD21
:1003000080916E00816080936E00109281008091D8
:100310008100826080938100809181008160809360
:100320008100809180008160809380008091B10085
:1003300084608093B1008091B00081608093B000B0
:1003400080917A00846080937A0080917A00826044
:1003500080937A0080917A00816080937A00809106
:100360007A00806880937A001092C10081E084B99D
:10037000F8941092800010928100609100017091B9
:10038000010180910201909103010E94C5027093C6
:100390008500609384008091810085608093810056
:1003A00080916F00816080936F00789400E010E08E
:1003B000C1E089E00E94A500892B39F48AE00E94FF
:1003C000A500892B11F41092040189E00E94A50078
:1003D000892B41F180910401811124C0C093040153
:1003E000C0900001D0900101E0900201F090030163
:1003F00020E03EEE45E057E4C701B6010E946903E4
:10040000181684F420E030E543EC54E4C701B6014B
:100410000E945302609300017093010180930201D6
:10042000909303018AE00E94A500892B41F18091FD
:100430000401811124C0C0930401C0900001D09038
:100440000101E0900201F090030120E037EF42E467
:1004500057E4C701B6010E94C00287FF10C020E028
:1004600030E543EC54E4C701B6010E9454026093A6
:100470000001709301018093020190930301011523
:10048000110509F496CF0E94000093CF80E097EF0A
:10049000A2E4B7E48093000190930101A0930201CC
:1004A000B093030108955058BB27AA270E946B02FE
:1004B0000C942F030E94210338F00E94280320F09F
:1004C00039F49F3F19F426F40C941E030EF4E095C2
:1004D000E7FB0C941803E92F0E94400358F3BA1766
:1004E000620773078407950720F079F4A6F50C944A
:1004F00062030EF4E0950B2EBA2FA02D0B01B9016B
:1005000090010C01CA01A0011124FF27591B99F089
:10051000593F50F4503E68F11A16F040A22F232F95
:10052000342F4427585FF3CF469537952795A795E5
:10053000F0405395C9F77EF41F16BA0B620B730B8C
:10054000840BBAF09150A1F0FF0FBB1F661F771FFD
:10055000881FC2F70EC0BA0F621F731F841F48F4B2
:10056000879577956795B795F7959E3F08F0B0CF3B
:100570009395880F08F09927EE0F97958795089522
:100580000E94F40208F481E008950E94480388F074
:100590009F5798F0B92F9927B751B0F0E1F0660F47
:1005A000771F881F991F1AF0BA95C9F714C0B13088
:1005B00091F00E946203B1E008950C946203672FEA
:1005C000782F8827B85F39F0B93FCCF386957795B7
:1005D0006795B395D9F73EF49095809570956195A0
:1005E0007F4F8F4F9F4F0895990F0008550FAA0B0B
:1005F000E0E8FEEF16161706E807F907C0F0121636
:100600001306E407F50798F0621B730B840B950B38
:1006100039F40A2661F0232B242B252B21F408958D
:100620000A2609F4A140A6958FEF811D811D08952A
:1006300097F99F6780E870E060E008959FEF80EC95
:10064000089500240A941616170618060906089538
:1006500000240A9412161306140605060895092E9E
:100660000394000C11F4882352F0BB0F40F4BF2B0D
:1006700011F460FF04C06F5F7F4F8F4F9F4F08954D
:1006800057FD9058440F551F59F05F3F71F0479543
:10069000880F97FB991F61F09F3F79F08795089528
:1006A000121613061406551FF2CF4695F1DF08C047
:1006B000161617061806991FF1CF86957105610564
:1006C00008940895E894BB2766277727CB0197F90C
:1006D00008950E94F40208F48FEF0895EE0FFF1FB3
:0C06E0000590F491E02D0994F894FFCFF0
:107E0000112484B714BE81FFF0D085E080938100F7
:107E100082E08093C00088E18093C10086E0809377
:107E2000C20080E18093C4008EE0C9D0259A86E02C
:107E300020E33CEF91E0309385002093840096BBD3
:107E4000B09BFECF1D9AA8958150A9F7CC24DD24C4
:107E500088248394B5E0AB2EA1E19A2EF3E0BF2EE7
:107E6000A2D0813461F49FD0082FAFD0023811F036
:107E7000013811F484E001C083E08DD089C08234E0
:107E800011F484E103C0853419F485E0A6D080C0E4
:107E9000853579F488D0E82EFF2485D0082F10E0AE
:107EA000102F00270E291F29000F111F8ED06801E7
:107EB0006FC0863521F484E090D080E0DECF843638
:107EC00009F040C070D06FD0082F6DD080E0C81688
:107ED00080E7D80618F4F601B7BEE895C0E0D1E017
:107EE00062D089930C17E1F7F0E0CF16F0E7DF06D8
:107EF00018F0F601B7BEE89568D007B600FCFDCFD4
:107F0000A601A0E0B1E02C9130E011968C91119780
:107F100090E0982F8827822B932B1296FA010C0160
:107F200087BEE89511244E5F5F4FF1E0A038BF0790
:107F300051F7F601A7BEE89507B600FCFDCF97BE46
:107F4000E89526C08437B1F42ED02DD0F82E2BD052
:107F50003CD0F601EF2C8F010F5F1F4F84911BD097
:107F6000EA94F801C1F70894C11CD11CFA94CF0C13
:107F7000D11C0EC0853739F428D08EE10CD085E9AC
:107F80000AD08FE07ACF813511F488E018D01DD067
:107F900080E101D065CF982F8091C00085FFFCCF94
:107FA0009093C60008958091C00087FFFCCF809118
:107FB000C00084FD01C0A8958091C6000895E0E648
:107FC000F0E098E1908380830895EDDF803219F02E
:107FD00088E0F5DFFFCF84E1DECF1F93182FE3DFCA
:107FE0001150E9F7F2DF1F91089580E0E8DFEE27F6
:047FF000FF270994CA
:027FFE00040479
:00000001FF
