:100000000C9457000C9469000C9469000C946900DE
:100010000C9469000C9469000C9469000C946900BC
:100020000C9469000C9469000C9469000C946900AC
:100030000C9469000C9482010C9469000C94690082
:100040000C9438010C9469000C9469000C946900BC
:100050000C9469000C9469000C9469000C9469007C
:100060000C9469000C946900000000002500280031
:100070002B00040404040404040402020202020229
:10008000030303030303010204081020408001025C
:1000900004081020010204081020000000080002DB
:1000A000010000030407000000000000000011240C
:1000B0001FBECFEFD8E0DEBFCDBF21E0A0E0B1E0B2
:1000C00001C01D92AF30B207E1F70E94C9010C9444
:1000D0000A030C94000090E0FC01E656FF4F2491C7
:1000E000FC01EA57FF4F3491FC01EE58FF4FE491B9
:1000F000EE23C9F0222339F0233001F1A8F4213096
:1001000019F1223029F1F0E0EE0FFF1FE859FF4FFF
:10011000A591B4918FB7F894EC91611126C03095F8
:100120003E233C938FBF08952730A9F02830C9F0B3
:10013000243049F7809180008F7D03C0809180003A
:100140008F7780938000DFCF84B58F7784BDDBCF3E
:1001500084B58F7DFBCF8091B0008F778093B00006
:10016000D2CF8091B0008F7DF9CF3E2BDACF3FB751
:10017000F89480910B0190910C01A0910D01B09128
:100180000E0126B5A89B05C02F3F19F00196A11DB1
:10019000B11D3FBFBA2FA92F982F8827BC01CD01D1
:1001A000620F711D811D911D42E0660F771F881F30
:1001B000991F4A95D1F708958F929F92AF92BF925F
:1001C000CF92DF92EF92FF920E94B7006B017C0109
:1001D00092E0892E912CA12CB12C0E94B7006C19B1
:1001E0007D098E099F09683E734081059105A8F33A
:1001F00028EEC20E23E0D21EE11CF11C8A9489284D
:100200008A288B2829F0812C912C54018394E5CFE6
:10021000FF90EF90DF90CF90BF90AF909F908F9026
:1002200008958A30910588F4FC01E75EFE4F0C9436
:10023000F0022301260128012A012C012E013001A0
:1002400032013401360187EE8BB9089584E8FCCF82
:1002500083EDFACF86EDF8CF84EBF6CF86E7F4CFC7
:1002600087E7F2CF84ECF0CF87EFEECF86EFECCFCD
:100270001F920F920FB60F9211242F933F938F93DB
:100280009F93AF93BF938091070190910801A09134
:100290000901B0910A013091060123E0230F2D37A7
:1002A00058F50196A11DB11D209306018093070109
:1002B00090930801A0930901B0930A0180910B016A
:1002C00090910C01A0910D01B0910E010196A11D1C
:1002D000B11D80930B0190930C01A0930D01B0937D
:1002E0000E01BF91AF919F918F913F912F910F90F0
:1002F0000FBE0F901F90189526E8230F0296A11DA0
:10030000B11DD2CF1F920F920FB60F9211248F936F
:100310009F9383EF90EC909385008093840080916D
:1003200004019091050101968C3391055CF4909342
:100330000501809304019F918F910F900FBE0F9044
:100340001F901895109205011092040180910201EE
:100350009091030101968C3391052CF49093030145
:1003600080930201E8CF1092030110920201809164
:100370000001909101010196883191052CF4909330
:10038000010180930001D7CF10920101109200016A
:10039000D2CF789484B5826084BD84B5816084BDF9
:1003A00085B5826085BD85B5816085BD80916E0013
:1003B000816080936E001092810080918100826044
:1003C0008093810080918100816080938100809181
:1003D00080008160809380008091B1008460809370
:1003E000B1008091B00081608093B00080917A006C
:1003F000846080937A0080917A00826080937A0092
:1004000080917A00816080937A0080917A00806880
:1004100080937A001092C10089E390E090930501E7
:10042000809304018AE390E090930301809302019A
:100430008BE090E090930101809300018FEF8AB9E7
:100440008FE384B9F894109280001092810083EFBA
:1004500090EC90938500809384008091810085606A
:100460008093810080916F00816080936F00789409
:10047000CAE0D0E016EF80E0C82E80E0D82E61E020
:1004800088E00E946B0061E089E00E946B0061E0FF
:100490008BE00E946B0061E08AE00E946B0061E0EB
:1004A0008CE00E946B0061E08DE00E946B00209167
:1004B000040130910501C901BE010E94DC025B010B
:1004C00016037001179FF00C1124E20EF31E60E07A
:1004D00088E00E946B00C5010E9411010E94DC00AF
:1004E00061E088E00E946B0060E089E00E946B00A0
:1004F000C7010E9411010E94DC0061E089E00E94B6
:100500006B002091020130910301C901BE010E94DC
:10051000DC025B0116037001179FF00C1124E20E40
:10052000F31E60E08BE00E946B00C5010E94110188
:100530000E94DC0061E08BE00E946B0060E08AE0DA
:100540000E946B00C7010E9411010E94DC0061E063
:100550008AE00E946B002091000130910101C901E5
:10056000BE010E94DC025B0116037001179FF00CB4
:100570001124E20EF31E60E08CE00E946B00C501C6
:100580000E9411010E94DC0061E08CE00E946B007F
:1005900060E08DE00E946B00C7010E9411010E9483
:1005A000DC0061E08DE00E946B00C114D10409F40D
:1005B00066CF0E94000063CF97FB072E16F40094CD
:1005C00007D077FD09D00E94F60207FC05D03EF463
:1005D000909581959F4F0895709561957F4F0895EF
:1005E000EE0FFF1F0590F491E02D0994AA1BBB1B91
:1005F00051E107C0AA1FBB1FA617B70710F0A61B23
:10060000B70B881F991F5A95A9F780959095BC0143
:08061000CD010895F894FFCF1D
:00000001FF
